:100000000C942B000C9453000C9453000C9453004C
:100010000C9453000C9453000C9453000C94530014
:100020000C9453000C9453000C9453000C94530004
:100030000C9453000C9453000C9453000C945300F4
:100040000C9453000C9453000C9453000C945300E4
:100050000C945300C70011241FBECFE5D4E0DEBFCF
:10006000CDBF10E0A0E6B0E0EAECF8E002C00590F9
:100070000D92A636B107D9F720E0A6E6B0E001C0A0
:100080001D92AA36B207E1F710E0CBE2D0E004C03F
:100090002197FE010E945D04CA32D107C9F70E9470
:1000A00078000C9463040C94000010BC87E689B9B6
:1000B00088E18AB986E880BD08955D9BFECF8CB942
:1000C000089587B38C6287BB8DB181658DB9C29A63
:1000D0000895CF93DF93EC018881882331F0219636
:1000E0000E945D0089918111FBCFDF91CF9108952E
:1000F000CF93DF93CDB7DEB760970FB6F894DEBF2E
:100100000FBECDBF0E9461000E9455008FEF8ABBD9
:1001100084BB86E690E00E948A0180E690E00E941F
:1001200069006894992494F8CE0101965C01C82E68
:10013000DB2C7E0191E1E90EF11CF501892D119274
:100140008A95E9F74C2D5D2D66E286E690E00E94E7
:10015000E4028111F2CF6C2D7D2D86E690E00E94A5
:100160001E038501F80181918F010E945D000E152B
:100170001F05C1F7AD9A6C2D7D2D86E690E00E949B
:10018000CB0386E690E00E941E04AD98D6CF46E0F1
:1001900050E062E070E086E690E00E94D5000895AD
:1001A0008FB9779BFECF8FB10895FC016083718377
:1001B00077B321E030E0C90102C0880F991F6A952A
:1001C000E2F7872B87BB68B3C901008002C0880FA4
:1001D000991F0A94E2F7862B88BB4283538354B35A
:1001E000C90102C0880F991F4A95E2F7852B84BB8D
:1001F00085B3028002C0220F331F0A94E2F7282B36
:1002000025BB0895FF920F931F93CF93DF938C012B
:10021000F42E98B3C1E0D0E09E01F801008002C046
:10022000220F331F0A94E2F7822F8095892388BB1F
:10023000862F880F8E770E94D0008F2D0E94D000CD
:1002400088B3F801008002C0CC0FDD1F0A94E2F7EA
:10025000C82BC8BBDF91CF911F910F91FF900895DC
:100260000F931F93CF93DF938C0128B3C1E0D0E0AD
:10027000AE01FC01008002C0440F551F0A94E2F752
:10028000942F9095922398BB862F880F8E77806845
:100290000E94D00080E00E94D00098B3F801008056
:1002A00002C0CC0FDD1F0A94E2F7C92BC8BBDF9157
:1002B000CF911F910F9108954FE061E00E940201DC
:1002C00008950F931F93CF93DF938C01D62FC42FE4
:1002D0000E943001482F4C2B6D2FC8010E94020153
:1002E000DF91CF911F910F9108950F931F93CF939B
:1002F000DF938C01D62FC42F0E943001C0954C2F64
:1003000048236D2FC8010E940201DF91CF911F91F8
:100310000F910895CF93DF93EC0128B381E090E033
:10032000088002C0880F991F0A94E2F7822B88BBCD
:10033000CE010E945C014DE86AE2CE010E940201FA
:100340004EE36BE2CE010E9402014EE16DE2CE016E
:100350000E94020140E06CE2CE010E94020140E4F2
:1003600065E1CE010E9402014DE361E1CE010E94F0
:10037000020143E064E1CE010E946101DF91CF916F
:1003800008955F926F927F928F929F92AF92BF92E9
:10039000CF92DF92EF92FF920F931F93CF93DF9351
:1003A0006C01562EC42FD52F490137018CE06817F8
:1003B00009F4C2C09EE0691308C06894FF24F4F8F1
:1003C0000F2EF2E1EF2EF02D02C0F12CE12C4E2D7C
:1003D000406862E0C6010E94020140E864E0C60194
:1003E0000E94750140E86AE0C6010E94610140E098
:1003F00061E0C6010E940201181419047CF4AC2EBD
:10040000BD2EC0E0D0E0F50141915F0169E0C60179
:100410000E9402012196C815D905ACF3452D61E073
:10042000C6010E940201FCE05F1205C040E86DE0D9
:10043000C6010E94610181EE94E00197F1F700C0CE
:10044000000064E0C6010E943001B82EC8E1D0E08F
:100450009F2D9160F92E0EC0E1EEF4E03197F1F797
:1004600000C0000064E0C6010E943001B82E219750
:1004700009F482C08F2D8B2179F386C08E2D817077
:10048000B822D1E0C0E009F4D0E0FCE05F128AC0FD
:100490006AE0C6010E943001F82E6CE0C6010E949D
:1004A0003001282F277079F08F2D90E00197880F69
:1004B000991F880F991F880F991F820F911DF301B3
:1004C000918380830BC08F2D90E0880F991F880F38
:1004D000991F880F991FF30191838083FF2051F0AA
:1004E0008F2D813108F080E1A82EB12C1A141B0445
:1004F00024F058C0AA24A394B12CE02EF12E00E0E1
:1005000010E069E0C6010E943001F70181937F018C
:100510000F5F1F4F0A151B05A4F344C04CE061E0B8
:10052000C6010E9402010F2EF0E3FF2EF02D0F2EC8
:10053000F7E7EF2EF02D7ACF47EF62E0C6010E9479
:10054000020140E864E0C6010E94750140E86AE0EB
:10055000C6010E94610140E061E0C6010E94020103
:1005600018141904DCF60F2EF0E3FF2EF02D0F2ED9
:10057000F7E7EF2EF02D43CF40E86DE0C6010E9473
:100580007501D2E0C0E00EC040E86DE0C6010E94F7
:10059000750166E0C6010E9430018D7109F46ECFCD
:1005A000D2E0C0E08D2F9C2FDF91CF911F910F9152
:1005B000FF90EF90DF90CF90BF90AF909F908F9083
:1005C0007F906F905F900895AF92BF92CF92DF922D
:1005D000EF92FF920F931F93CF93DF9300D0CDB78D
:1005E000DEB75C01162F6A0147E06DE00E94020150
:1005F000F6011083CE0101967C01860121E030E0F6
:10060000A6016CE0C5010E94C101009741F4298157
:100610003A812031310529F082E090E002C082E089
:1006200090E00F900F90DF91CF911F910F91FF906D
:10063000EF90DF90CF90BF90AF900895AF92BF92B0
:10064000CF92DF92EF92FF920F931F93CF93DF939E
:1006500000D0CDB7DEB75C016B0140E06DE00E94D9
:10066000020183E9F601808380E28183CE01019655
:100670007C01860122E030E0A6016CE0C5010E9409
:10068000C101BC01892B49F529813A81332314F436
:10069000295F3F4F359527953595279535952795B2
:1006A000C9010197181619066CF4F601AC01D601C0
:1006B000A80FB91F90E021919227EA17FB07D9F7FD
:1006C0009A0103C090E020E030E0F601E20FF31F52
:1006D0008081891711F062E070E0CB010F900F90DC
:1006E000DF91CF911F910F91FF90EF90DF90CF900E
:1006F000BF90AF900895AF92BF92CF92DF92EF92EA
:10070000FF920F931F93CF93DF938C015B016A01DC
:10071000790144E065E00E94750140E86AE0C801A3
:100720000E9461011C141D045CF4E501CA0CDB1C71
:10073000499169E0C8010E940201CC15DD05C1F7AD
:1007400043E061E0C8010E94020165E0C8010E9427
:100750003001CEEFD0E006C065E0C8010E94300154
:10076000219711F082FFF8CF62E2C8010E943001A8
:10077000F701808361E2C8010E943001F7018183A3
:10078000DF91CF911F910F91FF90EF90DF90CF906D
:10079000BF90AF900895CF92DF92EF92FF920F93A8
:1007A0001F93CF93DF93CDB7DEB72B970FB6F89497
:1007B000DEBF0FBECDBF6C0183E98B8380E78C83E6
:1007C000A62FB72FFE0135969E01265F3F4F8D91D4
:1007D0008193E217F307D9F79E01265F3F4F47E069
:1007E00050E0BE016D5F7F4FC6010E947B03CE01CA
:1007F00001967C018E010D5F1F4F29E030E0A801BA
:100800006CE0C6010E94C101892B31F489819A8173
:10081000489721F48B8103C080E001C080E02B96D3
:100820000FB6F894DEBF0FBECDBFDF91CF911F9101
:100830000F91FF90EF90DF90CF900895CF92DF92CD
:10084000EF92FF920F931F93CF93DF9300D000D0CE
:1008500000D0CDB7DEB76C0180E58B831C829E0192
:100860002B5F3F4F42E050E0BE016D5F7F4FC601FE
:100870000E947B03CE0101967C018E010D5F1F4F0C
:1008800024E030E0A8016CE0C6010E94C1018C01A7
:1008900048E068E0C6010E947501C80126960FB6BF
:1008A000F894DEBF0FBECDBFDF91CF911F910F91A6
:1008B000FF90EF90DF90CF900895EE0FFF1F05900F
:0A08C000F491E02D0994F894FFCFA5
:0608CA005354415254009A
:00000001FF
